:020000040000fa
:080000000002040000000000f2
:020000040000fa
:040008001a080000d2
:020000040000fa
:04000c00cc02000022
:020000040000fa
:04001000de0200000c
:020000040000fa
:04001400d402000012
:020000040000fa
:04001800e6020000fc
:020000040000fa
:04001c001a080000be
:020000040000fa
:040020001a080000ba
:020000040000fa
:040024001a080000b6
:020000040000fa
:040028001a080000b2
:020000040000fa
:04002c001a080000ae
:020000040000fa
:040030001a080000aa
:020000040000fa
:040034001a080000a6
:020000040000fa
:040038001a080000a2
:020000040000fa
:04003c001a0800009e
:020000040000fa
:040040001a0800009a
:020000040000fa
:04004400e2070000cf
:020000040000fa
:040048001a08000092
:020000040000fa
:04004c001a0800008e
:020000040000fa
:040050001a0800008a
:020000040000fa
:040054001a08000086
:020000040000fa
:040058001a08000082
:020000040000fa
:04005c001a0800007e
:020000040000fa
:040060001a0800007a
:020000040000fa
:040064001a08000076
:020000040000fa
:040068001a08000072
:020000040000fa
:04006c001a0800006e
:020000040000fa
:040070001a0800006a
:020000040000fa
:040074001a08000066
:020000040000fa
:040078001a08000062
:020000040000fa
:04007c001a0800005e
:020000040000fa
:040080001a0800005a
:020000040000fa
:040084001a08000056
:020000040000fa
:040088001a08000052
:020000040000fa
:04008c001a0800004e
:020000040000fa
:040090001a0800004a
:020000040000fa
:040094001a08000046
:020000040000fa
:040098001a08000042
:020000040000fa
:04009c001a0800003e
:020000040000fa
:0400a0001403000045
:020000040000fa
:0400a400ee02000068
:020000040000fa
:0400a8001a08000032
:020000040000fa
:0400ac001a0800002e
:020000040000fa
:0400b0001a0800002a
:020000040000fa
:0400b4001a08000026
:020000040000fa
:0400b8001a08000022
:020000040000fa
:0400bc001a0800001e
:020000040000fa
:0400c0001a0800001a
:020000040000fa
:0400c4001a08000016
:020000040000fa
:0400c8001a08000012
:020000040000fa
:0400cc001a0800000e
:020000040000fa
:0400d0001a0800000a
:020000040000fa
:0400d4001a08000006
:020000040000fa
:0400d8001a08000002
:020000040000fa
:0400dc001a080000fe
:020000040000fa
:0400e0001a080000fa
:020000040000fa
:0400e4001a080000f6
:020000040000fa
:0400e8001a080000f2
:020000040000fa
:0400ec001a080000ee
:020000040000fa
:0400f0001a080000ea
:020000040000fa
:0400f4001a080000e6
:020000040000fa
:0400f8001a080000e2
:020000040000fa
:0400fc001a080000de
:020000040000fa
:040100001a080000d9
:020000040000fa
:040104001a080000d5
:020000040000fa
:040108001a080000d1
:020000040000fa
:04010c001a080000cd
:020000040000fa
:040110001a080000c9
:020000040000fa
:040114001a080000c5
:020000040000fa
:040118001a080000c1
:020000040000fa
:04011c001a080000bd
:020000040000fa
:040120001a080000b9
:020000040000fa
:040124001a080000b5
:020000040000fa
:040128001a080000b1
:020000040000fa
:04012c001a080000ad
:020000040000fa
:04013000cc070000f8
:020000040000fa
:040134001a080000a5
:020000040000fa
:040138001a080000a1
:020000040000fa
:04013c001a0800009d
:020000040000fa
:040140001a08000099
:020000040000fa
:040144001a08000095
:020000040000fa
:040148001a08000091
:020000040000fa
:040208001a080000d0
:020000040000fa
:04020c001a080000cc
:020000040000fa
:040210001a080000c8
:020000040000fa
:040214001a080000c4
:020000040000fa
:040218001a080000c0
:020000040000fa
:04021c001a080000bc
:020000040000fa
:040220001a080000b8
:020000040000fa
:040224001a080000b4
:020000040000fa
:040228001a080000b0
:020000040000fa
:04022c001a080000ac
:020000040000fa
:040230001a080000a8
:020000040000fa
:040234001a080000a4
:020000040000fa
:040238001a080000a0
:020000040000fa
:04023c001a0800009c
:020000040000fa
:040240001a08000098
:020000040000fa
:040244001a08000094
:020000040000fa
:040248001a08000090
:020000040000fa
:04024c001a0800008c
:020000040000fa
:040250001a08000088
:020000040000fa
:040254001a08000084
:020000040000fa
:040258001a08000080
:020000040000fa
:04025c001a0800007c
:020000040000fa
:040260001a08000078
:020000040000fa
:040264001a08000074
:020000040000fa
:040268001a08000070
:020000040000fa
:04026c001a0800006c
:020000040000fa
:040270001a08000068
:020000040000fa
:040274001a08000064
:020000040000fa
:040278001a08000060
:020000040000fa
:04027c001a0800005c
:020000040000fa
:040280001a08000058
:020000040000fa
:040284001a08000054
:020000040000fa
:040288001a08000050
:020000040000fa
:04028c001a0800004c
:020000040000fa
:040290001a08000048
:020000040000fa
:040294001a08000044
:020000040000fa
:040298001a08000040
:020000040000fa
:04029c001a0800003c
:020000040000fa
:0402a0001a08000038
:020000040000fa
:0402a4001a08000034
:020000040000fa
:0402a8001a08000030
:020000040000fa
:0402ac001a0800002c
:020000040000fa
:0402b0001a08000028
:020000040000fa
:0402b4001a08000024
:020000040000fa
:0402b8001a08000020
:020000040000fa
:0402bc001a0800001c
:020000040000fa
:0402c0001a08000018
:020000040000fa
:0402c4001a08000014
:020000040000fa
:0402c8001a08000010
:020000040000fa
:0402cc001a0800000c
:020000040000fa
:0402d0001a08000008
:020000040000fa
:0402d4001a08000004
:020000040000fa
:0402d8001a08000000
:020000040000fa
:0402dc001a080000fc
:020000040000fa
:0402e0001a080000f8
:020000040000fa
:0402e4001a080000f4
:020000040000fa
:0402e8001a080000f0
:020000040000fa
:0402ec001a080000ec
:020000040000fa
:0402f0001a080000e8
:020000040000fa
:0402f4001a080000e4
:020000040000fa
:0402f8001a080000e0
:020000040000fa
:0402fc001a080000dc
:020000040000fa
:040300001a080000d7
:020000040000fa
:040304001a080000d3
:020000040000fa
:040308001a080000cf
:020000040000fa
:04030c001a080000cb
:020000040000fa
:040310001a080000c7
:020000040000fa
:040314001a080000c3
:020000040000fa
:040318001a080000bf
:020000040000fa
:04031c001a080000bb
:020000040000fa
:040320001a080000b7
:020000040000fa
:040324001a080000b3
:020000040000fa
:040328001a080000af
:020000040000fa
:04032c001a080000ab
:020000040000fa
:040330001a080000a7
:020000040000fa
:040334001a080000a3
:020000040000fa
:040338001a0800009f
:020000040000fa
:04033c001a0800009b
:020000040000fa
:040340001a08000097
:020000040000fa
:040344001a08000093
:020000040000fa
:040348001a0800008f
:020000040000fa
:10040000cf9220000e7f22000e0188000000000025
:10041000000020000000e000020032000001200087
:100420002002880014000700040307000000e00019
:1004300003003a00e0dc2000010020000200370049
:100440000000200001002000810f70000100320038
:1004500014000700000020000000e000020032004d
:100460000000020000000000560d02000000000025
:100470000040da000000fe004440a90000202000f7
:100480000000e0000300320000002000a00188000e
:100490004440a800000006008a1f78008b1f7800e7
:1004a0000000060091018800800478000000eb0045
:1004b0001a003700e284440032a0b4009905ba0063
:1004c000e284440032a0b4009906ba00e2844400f9
:1004d00032a0b4000006eb00476fde00fd07b2005b
:1004e000636ce10003003a00ebff07000000eb0043
:1004f0000a003700606ce10004003a00005deb0088
:100500008b05e900fdff3e00040037006168e10053
:10051000010032000086eb000b00070019c7ba008b
:100520001905ba000e04e00003003a000a00e000da
:10053000e0ff3a0000000600fe07b2009e018800be
:100540008a047800f5ff3700395dba008b05e900b1
:100550000c003200295dba008b05e900080032006a
:100560000c00e00003003a00e284440032a0b40032
:10057000f5ff370019ddba008b05e900faff3a00f4
:100580008904e800e184440032a0b40000000600c1
:1005900000000000000000003600f8008020a900e4
:1005a0000000eb00910507003600f80093050700f6
:1005b0008040a900100020008c0507003600f800dc
:1005c0008060a90020002000880507003600f800a0
:1005d0008080a9003000200084050700801f78007b
:1005e0000000fa00504080000000e8005040880001
:1005f0000cc8bf000040e9000ce8b7000cc8bf0001
:100600000004e000040032005040800010407800f8
:100610000080fb00a011880087e0a9000080fa009c
:100620004f007800004006003600f800809fbe00b2
:10063000829fbe00849fbe00869fbe000600fa0017
:100640000621ef00b0118000204798003040800064
:100650008000eb002201200003002000820f5000e8
:10066000838f580044023e000060010012003700f2
:10067000230037005700370063003700ca003700f7
:10068000d60037003d01370049013700e000370050
:10069000ff0037000b013700ea0037008b003700fe
:1006a00097003700a3003700af003700180137006c
:1006b000240137002b023700c422a9002e409000ed
:1006c000e14f50000b003a000868ef0008c8bf0077
:1006d0008080fb00a2812000ae41900003f17800f1
:1006e0000040e80008e8b700100020003040880013
:1006f0002102370020012000304088001e02370010
:1007000008c8bf008080fb00a2812000ae4190009d
:1007100003f178000040e80008e8b7002e409000a0
:100720000080fb00e40f50001b003200e40f50007b
:1007300007003c00e20f500011003200e20f5000b1
:1007400012003c00e10f50000a0032001d0037008b
:10075000e60f500016003200e60f50001100350081
:10076000ef0f500015003200f00f5000140032005f
:1007700014003700200020003040880014003700ab
:1007800020002000304088001100370020002000a9
:10079000304088000e0037002000200030408800e4
:1007a0000b003700c00020003040880008003700f0
:1007b000200020003040880005003700040037008a
:1007c00003003700200120003040880000000000b6
:1007d000e901370008c8bf008080fb00a28120002b
:1007e000ae41900003f178000040e80008e8b7004f
:1007f0002e419000118020008248780030002000b7
:1008000030408800dc01370008c8bf008080fb0052
:10081000a2812000ae41900003f178000040e80082
:1008200008e8b7002e41900001802000824878003f
:10083000b081200010407800e14f500002003a00e3
:100840008000200030408800b081200010407800f7
:10085000e24f500002003a00900020003040880033
:10086000b0812000104078008040780031c0b20094
:100870000180fb000000e9004f00de0080407800ae
:10088000b0812000104078000024a2000080fb000e
:100890000000e9004f00de000040780000c070005a
:1008a0000004e000020032004000200030408800d8
:1008b000b081200010407800e64f5000ab013a00b4
:1008c0000001200030408800ab01370008c8bf009d
:1008d0008080fb00a2812000ae41900003f17800ef
:1008e0000040e80008e8b7002e4190001180200089
:1008f00082487800d0002000304088009e013700f8
:1009000008c8bf008080fb00a2812000ae4190009b
:1009100003f178000040e80008e8b7002e4190009d
:100920000180200082487800e000200030408800ec
:100930009101370008c8bf008080fb00a281200021
:10094000ae41900003f178000040e80008e8b700ed
:100950002e419000f180200082487800f0002000b5
:10096000304088008401370008c8bf008080fb0049
:10097000a2812000ae41900003f178000040e80021
:1009800008e8b7002e419000e180200082487800fe
:100990007140800000408000ed02070060002000f0
:1009a000304088007401370008c8bf008080fb0019
:1009b000a2812000ae41900003f178000040e800e1
:1009c00008e8b7002e41900031802000824878006e
:1009d00050002000304088006701370008c8bf0081
:1009e0008080fb00a2812000ae41900003f17800de
:1009f0000040e80008e8b7002e4190002180200068
:100a00008248780060002000304088005a0137009a
:100a100008c8bf008080fb00a2812000ae4190008a
:100a200003f178000040e80008e8b7002e4190008c
:100a30003180200082487800b000200030408800db
:100a40004d01370008c8bf008080fb00a281200054
:100a5000ae41900003f178000040e80008e8b700dc
:100a60002e419000218020008248780064004700d9
:100a700012408000014080007f020700ae0190001c
:100a80007340880060002000304088003a01370041
:100a900008c8bf008080fb00a2812000ae4190000a
:100aa00003f178000040e80008e8b7002e4190000c
:100ab0003180200082487800a0002000304088006b
:100ac0002d01370008c8bf008080fb00a2812000f4
:100ad000ae41900003f178000040e80008e8b7005c
:100ae0002e41900021802000824878006400470059
:100af00012408000014080007a020700ae019000a1
:100b00008340880060002000304088001a013700d0
:100b100008c8bf008080fb00a2812000ae41900089
:100b200003f178000040e80008e8b7001001200059
:100b3000304088002e41900051812000824878008a
:100b40000d01370008c8bf008080fb00a281200093
:100b5000ae41900003f178000040e80008e8b700db
:100b600060002000304088002e419000418120002c
:100b700082487800d5020700ff00370008c8bf0090
:100b80008080fb00a2812000ae41900003f178003c
:100b90000040e80008e8b7002e4190005180200096
:100ba000824878007000200030408800f200370052
:100bb00008c8bf008080fb00a2812000ae419000e9
:100bc00003f178000040e80008e8b7002e419000eb
:100bd00041802000824878002001200030408800b9
:100be00008c8bf000080fb0080007800a0812000c2
:100bf000870307000000e000de003a0020168000b6
:100c00006100600000f0a7000000ea000000e900b9
:100c10004f00de00004078000080fb0061006000b3
:100c2000211680000100a10001007000201688003c
:100c3000b081200010407800e44f500029003a00b5
:100c4000a081200090407800e087200001487800d3
:100c5000b081200090407800f087200001487800a3
:100c60000088200041c0b30001487800308e200089
:100c7000904078001088200001487800208e2000e5
:100c8000904078002088200001487800508e200095
:100c9000904078003088200001487800408e200085
:100ca00090407800408820000148780071002000c2
:100cb000e087200056030700204088004180200084
:100cc0009140780050882000014878005180200031
:100cd00091407800608820000148780090c0b300ff
:100ce0000ce8b700b081200010407800e34f5000be
:100cf0002a003a00ca22a800a08120009040780073
:100d0000e087200001487800b08120009040780002
:100d1000f0872000014878000088200041c0b3001f
:100d200001487800708f20009040780010882000e3
:100d300001487800608f20009040780020882000d3
:100d400001487800908f2000904078003088200083
:100d500001487800808f2000904078004088200073
:100d60000148780071002000e08720002803070078
:100d70002040880041802000914078005088200069
:100d80000148780051802000914078006088200060
:100d90000148780090c0b3000ce8b700b081200093
:100da00010407800e14f500021003a00a08120005f
:100db00090407800e087200001487800b081200052
:100dc00090407800f08720000148780000882000db
:100dd00021c0b30001487800e180200091407800f4
:100de0001088200001487800f180200091407800b0
:100df000208820000148780051002000e087200072
:100e000003030700204088004180200091407800c3
:100e100030882000014878005180200091407800ff
:100e2000408820000148780070c0b3000ce8b7008b
:100e3000b081200010407800e24f500021003a00bd
:100e4000a081200090407800e087200001487800d1
:100e5000b081200090407800f087200001487800a1
:100e60000088200021c0b3000148780001812000e3
:100e700091407800108820000148780011812000fe
:100e8000914078002088200001487800510020001f
:100e9000e0872000de02070020408800418020001b
:100ea000914078003088200001487800518020006f
:100eb00091407800408820000148780070c0b3005d
:100ec0000ce8b700b0812000104078008040780026
:100ed00051c0b2000180fb000000e9004f00de00bd
:100ee00080407800b08120001040780060c0b200df
:100ef0000080fb000000e9004f00de0000407800a9
:100f000000c070000004e0000f0032000000eb00a1
:100f1000000f780007003700a08120001e0040006d
:100f200090407800e08720001e00400001487800d3
:100f30001e0fe8001e007800e80f5000f6ff340096
:100f400080c0b3000ce8b700e08720005040880064
:100f500050408000104078000080fb00a011880005
:100f6000050037000000000003003700000000000b
:100f7000010037000000000087c0a9000080fa00cf
:100f80004f03be004f02be004f01be004f00be0027
:100f90003600f90000400600801f78000000fa00cb
:100fa00090118000620060000000e000010032004b
:100fb0003222a9008c40a9000080fa004f0078007e
:100fc000004006003600f800809fbe00829fbe00f1
:100fd000849fbe00869fbe000000fa00c0408000d3
:100fe0000000e00002003200c0408000000001006c
:100ff000b0922000104078008040e800b0922000bd
:1010000001487800a092200011c0b3000148780088
:101010000628ef0084e0a9000080fa004f03be001c
:101020004f02be004f01be004f00be003600f90067
:10103000004006000040da000000fe00000005004d
:020000040000fa
:1010400000000000c1c0000081c10000400100009c
:1010500001c30000c00300008002000041c2000084
:1010600001c60000c00600008007000041c7000064
:1010700000050000c1c5000081c40000400400005c
:1010800001cc0000c00c0000800d000041cd00002c
:10109000000f0000c1cf000081ce0000400e000014
:1010a000000a0000c1ca000081cb0000400b000014
:1010b00001c90000c00900008008000041c800000c
:1010c00001d80000c01800008019000041d90000bc
:1010d000001b0000c1db000081da0000401a0000a4
:1010e000001e0000c1de000081df0000401f000084
:1010f00001dd0000c01d0000801c000041dc00007c
:1011000000140000c1d4000081d50000401500008b
:1011100001d70000c01700008016000041d6000073
:1011200001d20000c01200008013000041d3000073
:1011300000110000c1d1000081d00000401000006b
:1011400001f00000c03000008031000041f10000db
:1011500000330000c1f3000081f2000040320000c3
:1011600000360000c1f6000081f7000040370000a3
:1011700001f50000c03500008034000041f400009b
:10118000003c0000c1fc000081fd0000403d00006b
:1011900001ff0000c03f0000803e000041fe000053
:1011a00001fa0000c03a0000803b000041fb000053
:1011b00000390000c1f9000081f80000403800004b
:1011c00000280000c1e8000081e90000402900007b
:1011d00001eb0000c02b0000802a000041ea000063
:1011e00001ee0000c02e0000802f000041ef000043
:1011f000002d0000c1ed000081ec0000402c00003b
:1012000001e40000c02400008025000041e500004a
:1012100000270000c1e7000081e600004026000032
:1012200000220000c1e2000081e300004023000032
:1012300001e10000c02100008020000041e000002a
:1012400001a00000c06000008061000041a100001a
:1012500000630000c1a3000081a200004062000002
:1012600000660000c1a6000081a7000040670000e2
:1012700001a50000c06500008064000041a40000da
:10128000006c0000c1ac000081ad0000406d0000aa
:1012900001af0000c06f0000806e000041ae000092
:1012a00001aa0000c06a0000806b000041ab000092
:1012b00000690000c1a9000081a80000406800008a
:1012c00000780000c1b8000081b90000407900003a
:1012d00001bb0000c07b0000807a000041ba000022
:1012e00001be0000c07e0000807f000041bf000002
:1012f000007d0000c1bd000081bc0000407c0000fa
:1013000001b40000c07400008075000041b5000009
:1013100000770000c1b7000081b6000040760000f1
:1013200000720000c1b2000081b3000040730000f1
:1013300001b10000c07100008070000041b00000e9
:1013400000500000c1900000819100004051000059
:1013500001930000c0530000805200004192000041
:1013600001960000c0560000805700004197000021
:1013700000550000c1950000819400004054000019
:10138000019c0000c05c0000805d0000419d0000e9
:10139000005f0000c19f0000819e0000405e0000d1
:1013a000005a0000c19a0000819b0000405b0000d1
:1013b00001990000c05900008058000041980000c9
:1013c00001880000c04800008049000041890000f9
:1013d000004b0000c18b0000818a0000404a0000e1
:1013e000004e0000c18e0000818f0000404f0000c1
:1013f000018d0000c04d0000804c0000418c0000b9
:1014000000440000c18400008185000040450000c8
:1014100001870000c04700008046000041860000b0
:1014200001820000c04200008043000041830000b0
:1014300000410000c18100008180000040400000a8
:020000040000fa
:101440000000fa0080002000801188003222ef00a6
:10145000001a2000c011880087c0a90097c0a8000a
:1014600031e2a8003342a80087e0a90097e0a80075
:101470000080fa00000006000800fa00210798002a
:1014800032079800ce409000014f7800511680003e
:10149000110798002e419000410020008110dd00ce
:1014a000214798002e4190009e40780081404100e5
:1014b000014f78005116800011079800ae4090004f
:1014c0008180fb00c408de0081407800214798003d
:1014d000ae409000114798001e0878000080fa0086
:1014e000000006000800fa00210798003207980063
:1014f000ce409000014f78005116800011079800ef
:101500003e419000410020008110dd0031479800ed
:101510003e4190009e40780081404100014f78009c
:101520005116800011079800be4090008180fb009a
:10153000c408de00814078003147980031c0b30014
:10154000114798001e0878000080fa00000006008d
:101550000600fa0010079800210798000040eb00f1
:10156000004f7800ae00900000f02f00808f5000f8
:1015700002003a0010c0b300004f78001e00900037
:10158000e30f500027003200e30f500005003e003b
:10159000e10f500013003200e10f500019003e002f
:1015a00009003700e50f50002e003200e50f500013
:1015b00024003900e60f500032003200e70f5000df
:1015c000380032003f0037001e80fb0061006000e1
:1015d000511680000100a100010070005016880023
:1015e000380037001e80fb006100600000004000f2
:1015f000511680000110a1000100700050168800f3
:10160000300037001e80fb00610060004200dd00fa
:10161000511680000120a1000100700050168800c2
:10162000280037001e80fb00610060004300dd00e1
:10163000511680000130a100010070005016880092
:10164000200037001e80fb00610060004400dd00c8
:10165000511680000140a100010070005016880062
:10166000180037001e80fb00610060004500dd00af
:10167000511680000150a100010070005016880032
:10168000100037001e80fb00610060004600dd0096
:10169000511680000160a100010070005016880002
:1016a000080037001e80fb00610060004700dd007d
:1016b000511680000170a1000100700050168800d2
:1016c000000000000080fa00000006000000fa00a0
:1016d00000408000a140800000014000608f200099
:1016e00000004100010878000080fa0000000600b8
:1016f0000000fa000621ef00300e2000600888008c
:101700000003280080088800c04080000000e0003e
:1017100002003a0000bd20002400070084e0a90078
:1017200094e0a800a09220008040eb0001487800df
:101730000080fa00000006000200fa00000f7800a6
:101740009e00780061088800a09220008040eb0095
:10175000014878000080fa00000006000000fa004e
:10176000600880000080fa00000006000200fa0015
:10177000000f78009e00780031088800a0922000b9
:101780008040eb00014878000080fa00000006006d
:101790000000fa00300880000080fa000000060017
:1017a0000000fa000080fa00000006000200fa00c3
:1017b000000f780094e0a9009e007800c1408800e6
:1017c00094e0a8000080fa00000006000000fa0083
:1017d000a09220008040eb000148780094e0a8002f
:1017e00011e1a8000080fa00000006000000fa00e5
:1017f00011e1a90094e0a9000080fa0000000600b1
:101800000200fa00a0922000104f78001e407800dd
:101810000004e00003003200a09220008040eb00b2
:10182000014878001e4078000080fa0000000600a1
:101830000000fa00b0922000104078000080fb0009
:101840000080fa00000006000000fa00b0922000bc
:101850008040eb00014878000080fa00000006009c
:101860000000fa0043c7bf008080fb00800f20000b
:101870000081600080072000a1092000337420004f
:10188000804978008149780082497800103a8000c8
:101890004c00de00e7406000103a80004800de00a7
:1018a0006740600080cf50001300320042c7bf0085
:1018b0000081fb00600420007105200023742000db
:1018c0008049780081497800824978000000000052
:1018d000103a8000610060000000e000fcff3a0068
:1018e00000000000113a800000022000008060002b
:1018f0000000e000fbff320000002300203a8800d7
:101900004827ef007027ef007227ef007427ef00e1
:101910001200200080072000a1092000337420005d
:1019200080497800814978008249780012002000bf
:101930006004200071052000237420008049780095
:1019400081497800824978000080fa000000060092
:101950000000fa00c422ef00cc22ef00c402a9006c
:10196000c422a900f00120000016880000f0270022
:1019700040168800c002a900c022a9006820ef001c
:101980006a20ef00c622ef00ce22ef00c040200008
:1019900060198800113a8000f00b2000008160007f
:1019a0006004200071052000237420008049780025
:1019b000814978008249780071368000f00f2e004e
:1019c00080806000005020000100700070368800a8
:1019d0003135800000fe2f0000806000e000b30081
:1019e00030358800103a8000000178000260a000c5
:1019f00060042000710520002374200080497800d5
:101a000081497800824978000080fa0000000600d1
:101a10000800fa0020079800310798000080eb00ca
:101a2000000f7800130037002e00900090407800df
:101a30001e0078000040780000c068002047980031
:101a40002e0090000000e800200798001e0078009b
:101a50004800de00000f78002e4090000080fb0060
:101a600080004000008228000080400010007800c4
:101a70001e0f68003e00900000f0a7000000ea0082
:101a80000000ea004f00de0000407800be00900039
:101a90008100e900310798000004e000e2ff3a000d
:101aa0001e0078000080fa00000006000600fa0020
:101ab000590007000000eb00104788000000eb0011
:101ac00020478800a0002000b0478800d0002000f8
:101ad000c0478800f000200060168800cc02a800f3
:101ae0009e007800114788001e0fe8009e007800d5
:101af000214788001e0fe8006000b800100798001a
:101b000021079800060037001e009000ae009000ec
:101b100061004000e080480010079800210798000d
:101b20001e019000ae019000f0232400f10020007f
:101b3000800f5100818f5900f3ff3600e8ff370016
:101b40000000fa0021068000f08f2f000080600066
:101b50000080a0002006880091058000f0ff28008a
:101b60000080600000c0a000900588009105800002
:101b7000f08f2f00008060000080a000900588009a
:101b800031058000f0ff28000080600000c0a00048
:0c1b9000300588000080fa00000006000c
:020000040000fa
:101b9c000a090000200000000000000016080000e8
:101bac000200000002000000ffff00001a08000005
:101bbc00f00000000000000000080000160000000b
:101bcc00000000002a0900000200000000000000d4
:101bdc0018080000020000000000000000000000d7
:020000040000fa
:101bec00000f78009e007800b1408800ffff37009e
:101bfc000000fa00a09020008007780020922000be
:101c0c00000188000080fa00000006000000fa00c5
:101c1c004cff0700c7ff07000eff070005fe07007b
:101c2c00b0fe07000080fa00000006000000fa0079
:0c1c3c0008ff07000080fa00000006000e
:020000040000fa
:020000040001f9
:0457f8001f79000015
:020000040000fa
:020000040001f9
:0457fc007f3f0000eb
:00000001FF
